:100000000C9432080C945A080C945A080C945A0810
:100010000C945A080C945A080C945A080C945A08D8
:100020000C945A080C945A080C945A080C945A08C8
:100030000C945A080C94FD090C945A080C945A0814
:100040000C94B3090C945A080C945A080C945A084E
:100050000C945A080C945A080C945A080C945A0898
:100060000C945A080C945A08000000002300260043
:10007000290000000000250028002B0000000008D7
:10008000000201000003040700000000000000005F
:1000900000000000240027002A00010204081020AC
:1000A000408001020408102001020408102004040A
:1000B0000404040404040202020202020303030310
:1000C000030348484848484848484848484848483A
:1000D00048484848484848484848484848484848A0
:1000E0004848484848484848484848484848484890
:1000F0004848484848484848484848484848484880
:10010000484848484848484848484848484848486F
:10011000484848484848484848484848484848485F
:10012000484848484848484848484848484848484F
:10013000484848484848484848484848484848483F
:10014000484848484848484848484848484848482F
:10015000484848484848484848484848484848481F
:10016000484848484848484848484848484848480F
:1001700048484848484848484848484848484848FF
:1001800048484848484848484848484848484848EF
:1001900048484848484848484848484848484848DF
:1001A00048484848484848484848484848484848CF
:1001B00048484848484848484848484800000000DF
:1001C000000000000000000000000000000000002F
:1001D000000000000000000000000000000000001F
:1001E000000000000000000000000000000000000F
:1001F00000000000000000000000000000000000FF
:1002000000000000000000000000000000000000EE
:1002100000000000000000000000000000000000DE
:1002200000000000000000000000000000000000CE
:1002300000000000000000000000000000000000BE
:1002400000000000000000000000000000000000AE
:10025000000000000000000000000000000000009E
:10026000000000000000000000000000000000008E
:10027000000000000000000000000000000000007E
:10028000000000000000000000000000000000006E
:10029000000000000000000000000000000000005E
:1002A000000000000000000000000000000000004E
:1002B000000000000000484848484848484848486E
:1002C00048484848484848484848484848484848AE
:1002D000484848484848484848484848484848489E
:1002E000484848484848484848484848484848488E
:1002F000484848484848484848484848484848487E
:1003000048000000000000000000000000000000A5
:1003100000000000000000000000000000000000DD
:1003200000000000000000000000000000000000CD
:1003300000000000000000000000000000000000BD
:1003400000000000000000000000000000000000AD
:10035000000000000000000000000000000000009D
:10036000000000000000000000000000000000008D
:10037000000000000000000000000000000000007D
:10038000000000000000000000000000000000006D
:10039000000000000000000000000000000000005D
:1003A000000000000000000000000000000000004D
:1003B000000000000000000000000000000000003D
:1003C000000000000000000000000000000000002D
:1003D000000000000000000000000000000000001D
:1003E000000000000000000000000000000000000D
:1003F00000000000000000000000000000000000FD
:1004000000000000000000000000000000000000EC
:1004100000000000000000000000000000000000DC
:1004200000000000000000000000000000000000CC
:1004300000000000000000000000000000000000BC
:1004400000000000000000000000000000000000AC
:10045000000000000000000000000000000000009C
:10046000000000000000000000000000000000008C
:10047000000000000000000000000000000000007C
:10048000000000000000000000000000000000006C
:10049000000000000000000000000000000000005C
:1004A00000000000000000000000000205080B0E24
:1004B0001114171A1D1F2225282B2E3134373A3CD0
:1004C0003F42454845423F3C393633312E2B2825A3
:1004D000221F1C191614110E0B0805020003060931
:1004E0000B0E1114171A1D202326282B2E313437FA
:1004F0003A3D4043454845423F3C393633302D2A4A
:100500002825221F1C191613100D0B0805020003C5
:1005100006090C0F1214171A1D202326292C2F311F
:1005200034373A3D4043464744413F3C3936333007
:100530002D2A2724211F1C191613100D0A07040247
:10054000000306090C0F1215181B1D202326292C49
:100550002F3235383A3D4043464744413E3B3836DA
:1005600033302D2A2724211E1B181613100D0A07BD
:100570000401010406090C0F1215181B1E21242664
:10058000292C2F3235383B3E4143464744413E3BC0
:100590003835322F2D2A2724211E1B1815120F0D36
:1005A0000A0704010104070A0D0F1215181B1E216A
:1005B00024272A2D2F3235383B3E414447464341BC
:1005C0003E3B3835322F2C292624211E1B181512AC
:1005D0000F0C090604010104070A0D101316181B5D
:1005E0001E2124272A2D303336383B3E41444746CE
:1005F00043403D3A3835322F2C292623201D1B1825
:1006000015120F0C090603000204070A0D10131639
:10061000191C1F2124272A2D303336393C3F4144F1
:10062000474643403D3A3734312F2C292623201D9D
:100630001A1714120F0C090603000205080B0D10FF
:100640001316191C1F2225282A2D303336393C3F1A
:100650004245484543403D3A3734312E2B28262326
:10066000201D1A1714110E0B090603000205080BB2
:100670000E111416191C1F2225282B2E3133363942
:100680003C3F42454845423F3C3A3734312E2B28C7
:1006900025221F1D1A1714110E0B0805020024280D
:1006A0002D3135393D40424546474848474644424A
:1006B000403C3935312D28241F1A16120E0B08051F
:1006C000030100000000010305080B0F13171B2096
:1006D00024292D3236393D40434546474848474650
:1006E00044423F3C3935302C28231F1A16120E0A7B
:1006F0000705030100000000020306080C0F131792
:100700001C2025292E32363A3D404345464748486D
:10071000474644423F3C3834302C27231E1A1511DB
:100720000D0A0705020100000000020406090C1072
:1007300013181C21252A2E32363A3E41434547489C
:100740004848474644413F3B3834302B27221E1946
:1007500015110D0A07040201000000010204060938
:100760000C1014181C21262A2F33373B3E414345D9
:1007700047484848474644413E3B37332F2B2622C3
:100780001D1914100D0907040201000000010204E4
:1007900006090D1014191D21262B2F33373B3E411E
:1007A000444547484848474543413E3B37332F2A55
:1007B00026211D1814100C09060402010000000176
:1007C0000204070A0D1115191D22262B2F34383B60
:1007D0003E41444647484848474543413E3A3733FF
:1007E0002E2A25211C1814100C09060402000000F2
:1007F00000010204070A0D1115191E22272B30349F
:10080000383C3F42444647484848474543403D3AC4
:1008100036322E2925201C17130F0C09060302005F
:10082000000000010305070A0E11161A1E23272CCB
:100830003034383C3F4244464748484746454340A9
:100840003D3A36322D2924201B17130F0B080503C0
:100850000100000000010305070B0E12161A1F23EA
:10086000282C3135393C3F424446474848474645A5
:1008700042403D3935312D29241F1B17120F0B081B
:1008800005030100000000010305080B0E12161BF2
:100890001F2450504F4F4E4C4B4947454341403E1B
:1008A0003B383734333233333334353637393A3CE7
:1008B0003D3F4041424445464747484948494849E9
:1008C0004949494A494A4A4B4D4F4F4E4C4B4B4A76
:1008D000474543403E3B3734312D2A29292A2B2DC9
:1008E0002F313336383B3D3F414345484B4E505303
:1008F00056585859595A5B5D5E5F5F5F5F5E5E5F39
:100900005F606161615F5F5E5D5A5753504C49455E
:10091000423E3A3733312F2E2E2E30323436393C88
:100920003E4144494B4D4F505153535454545657E4
:10093000585A5B5C5D5F606263646567686968669E
:100940006462605C5955514D4944413D39342F2C06
:100950002A292828292A2B2C2E30313436393C3E9E
:10096000414447494A4B4B4C4D4E505153555657B5
:100970005859595B5D5F61626262605F5D5A5652B1
:100980004F4B4945423F3C3A3633302E2C2B2C2CD2
:100990002C2D2D2F2F323435373A3B3D3F414345E7
:1009A0004646464748494B4D4F515457595B5C5C4E
:1009B0005E616465656563615F5C595754504B497E
:1009C00044413E3B383534343536353637393B3C97
:1009D0003F4145484A4D505254575A5C5E5F6060F3
:1009E00061636566686A6C6F71747577787977751D
:1009F000716F6B67635F5C57534E4A433F3A3732C0
:100A00002F2D2B2B2A28292A2C2C2F3135373839FA
:100A10003A3E4042434547494C4D4D4F5053565A3C
:100A20005D5F62676A6C6E6F70716F6E6B6866781F
:100A30008C908F8579726F685E56534E4743424063
:100A40003F3D3C3D3D3D3D3E3E3F3F4142434344B3
:100A50004443434646474848484B4D5053575B60D4
:100A6000666B6E717476787A7B7977757572706D56
:100A70006965625D58524D48433E3B3A38373636D9
:100A80003638393A3B3C1B1C1A1A171A161615161B
:100A9000151716161717181A1B19171615171716E4
:100AA00015161517181A191C1C1D1B203C6C7A50A2
:100AB0001A040A1213151415161615171519191AF2
:100AC000171A17181719191A1A1C1B1B1D1F1F1F7D
:100AD0001C1A181918191A191A1918171616171690
:100AE000161616161B191B1B18171A19161616168A
:100AF0001616171718181A17191617181A1718167E
:100B000017151918191A19181716151716191A186A
:100B10001A2B597B6226070714181A1A1919191A61
:100B2000191716161515171819191A1B1C1A1B1A3E
:100B300019191A1A1B1B1A1A1A1A191B1A1C1B1C10
:100B40001918171A1919191A181B1A1A191A1B1D0C
:100B50001C1A191819191A1819181A1A1B1A1F36DB
:100B6000697F541B04081417191817191A1A181A30
:100B7000191A1A191B1A191F1C1F1F1F20222223A2
:100B800022201F1E1B1A19191A1A1A1A18191818B6
:100B90001717161716171619181A171B1919191AD5
:100BA0001918181618191A1D2E57785A24080613E2
:100BB0001816191817181A19191919191A1B1B1BA5
:100BC0001C1D1E1F20211E24222522211E1F1B1B2F
:100BD00019181719161717171818191819171A1896
:100BE000171919161818191919181A1B1B1B1B1A73
:100BF0001B19161515161817151617171B1F376B07
:100C00007B4D17060E15161715151618191A191AF1
:100C10001A191719171716161617191A1C1E21213B
:100C200021201B1A1A16151514151717171918183D
:100C30001718181617161618191519161717171743
:100C40001817171F406E7040150A131B1A19171634
:100C5000151917181817191A191B1C1C1D1E1D1CF5
:100C60001B1C1F20232322221F1E1A1A191A1817B1
:100C70001715151717161616171611111111111130
:100C8000121212121212131414141515141514162C
:100C90001616181818181818191A1B1A1B1B1C1CC2
:100CA0001B1A1A1A1A1B1B191919191918181717B0
:100CB00017171613141314141513131212121211FA
:100CC00011111111111111100F0F0E0E0C0B08063E
:100CD000070C12171F262D343A3F464D53565650D7
:100CE00048413A31291F180F0904040405090C0E64
:100CF000100F0F10111112111111111111121212E6
:100D00001313131414141414161515141516171799
:100D10001716171818181919191A1B1C1C1C1D1D39
:100D20001E1E1E1E1E1F1F1F1F20202022212121CC
:100D30002222232324232424232324252525252577
:100D4000242423232322232221201F1F1F1F1E1E92
:100D50001D1D1C1D1A19191818181816151515140B
:100D6000141414141314141211111111111212125B
:100D7000121212111111111111111111111112135D
:100D80001314131516161515151617181718181805
:100D900018191A1A1A1A1B1C1B1C1C1C1C1C1B1BA6
:100DA0001B1B1A1B1A1818171717181615141313CC
:100DB0001414121212121211111111111111111019
:100DC000100F0F0F0E0C0B0B0806070B11171F252A
:100DD0002D333940474E5356565048423A3028201A
:100DE00018110A040204060A0D0E0E0E0F1111113D
:100DF00011111111111211111212131414131313D2
:100E00001415151414151515171716161818191882
:100E1000191A191A1B1B1B1B1D1D1D1E1E1E1E1F12
:100E20001F1F1F20202120202123232324242425A9
:100E3000242424252525252526262423232324236D
:100E40002220212020201F1F1D1D1E1E1D1B1A19C0
:100E5000191918181616151515141414141414123B
:100E600011111111121111111111111111110F0E76
:100E70000E0E0F0F0F0E0E0E0E0E0E0E0E0E0E0E8F
:100E80000E0E0E0E0E0E0E0E0E0E0E0E0E0E0E0E82
:100E90000E0E0E0E0E0E0E0E0E0E0E0E0E0E0E0E72
:100EA0000E0E0E0E0F0F0E0E0E0E0E0E0F0E0E0E5F
:100EB0000E0E0E0E0E0F0F0F0F0E0E0E0E0E0E0E4E
:100EC0000F0E0E0E0F0F0E0E0E0F0F0F0F0E0E0E3B
:100ED0000E0F0F0F0F0F0F0F0F0E0E0E0E0F0F0F27
:100EE0000F0F0F0E0E0F0F0F101010100F0E0E0F12
:100EF0000F101010101010101010101010101010F3
:100F000010100F0F0F0F0F0F0F0F101010111112E5
:100F10001212121214141516161616161617171783
:100F200017191A19191A191919191A1A1919181831
:100F3000181716161616161514131313131111116C
:100F4000111111110F0F0F0F0F0F0E0E0E0D0E0EB0
:100F50000D0C0C0A08070707090F151D23292F344C
:100F60003B42484D51514C453E362E251E160E082B
:100F700002010204070A0C0C0D0E0F0F0F0F0F0FCA
:100F80000F0F1010100F0F10101110101011111161
:100F90001111111112121111131415151514151523
:100FA000161616171718191A191919191A1B1B1BB7
:100FB0001C1B1D1D1D1E1E1E1E1F1F1F1F2020204F
:100FC0002121212121212121212121212121212111
:100FD000212121212020201F1F1E1F1D1C1B1B1B28
:100FE0001C1B1A1918181817161616151615131390
:100FF0001211111110100F0F0F100E0E0E0F0F0FF8
:101000000F0E0E0F0E0E0F0F0F0F0F0F0F0F0F0FF4
:101010000F0F0F0F0F0F0F0F0F0F0F0E0F0F0F10E0
:1010200010101010101010111110101010101010BE
:101030000F101011111111111111111111111111A4
:101040001111111111111111111111100F0F0F0F99
:101050000F0F0F0F0F0F0F0F0F0F0F0F0F0F0F0EA1
:101060000E0FBE0B11241FBECFEFD8E0DEBFCDBFE9
:1010700011E0A0E0B1E0E4E5F8E102C005900D92D6
:10108000A830B107D9F723E0A8E0B1E001C01D9274
:10109000AB32B207E1F718E0C2E3D8E004C0219711
:1010A000FE010E940E0CC133D107C9F70E94240A29
:1010B0000C94280C0C940000833081F028F48130CB
:1010C00099F08230A9F008958730A9F08830C9F0EE
:1010D0008430B1F4809180008F7D03C080918000C6
:1010E0008F7780938000089584B58F7784BD0895AD
:1010F00084B58F7DFBCF8091B0008F778093B00057
:1011000008958091B0008F7DF9CF1F93CF93DF9327
:10111000282F30E0F901E458FF4F8491F901E65699
:10112000FF4FD491F901E255FF4FC491CC23A9F0B0
:10113000162F81110E945C08EC2FF0E0EE0FFF1FCC
:10114000EE58FF4FA591B4918FB7F894EC9111111F
:1011500008C0D095DE23DC938FBFDF91CF911F9124
:101160000895DE2BF8CFCF93DF9390E0FC01E65695
:10117000FF4F249182559F4FFC0184918823D1F029
:1011800090E0880F991FFC01E057FF4FA591B491A3
:10119000FC01EE58FF4FC591D491623071F49FB7B6
:1011A000F8943C91822F809583238C93E8812E2B99
:1011B00028839FBFDF91CF9108958FB7F894EC916A
:1011C0002E2B2C938FBFF6CF0F931F93CF93DF93CC
:1011D000EC012FB7F8948091150190911601A09120
:1011E0001701B09118012FBF8E839F83A887B987FD
:1011F000288139813327F901E458FF4F8491F9019F
:10120000E656FF4F0491F901E255FF4F1491112367
:1012100019F181110E945C08E12FF0E0EE0FFF1F31
:10122000E859FF4FA591B491EC910E2331E020E0F5
:1012300009F430E0832F922F2A853B852817390740
:1012400071F09B878A87EC85FD85309741F0DF91AF
:10125000CF911F910F91099490E080E0EDCFDF9145
:10126000CF911F910F9108958EBD00000DB407FE20
:10127000FDCF8EB50895CF938091270390912803D9
:10128000892B69F4C0910D03EC2FF0E0E050FF4F83
:1012900080810E943409C95FC770C0930D0381E04B
:1012A00080930E03CF910895CF938091190390916D
:1012B0001A03892B69F4C0910D03EC2FF0E0E05084
:1012C000FF4F80810E943409CF5FC770C0930D0328
:1012D00081E080930E03CF910895CF9380910B010D
:1012E00090910C01019690930C0180930B01843F27
:1012F0009140D4F060E08AE00E948508C0910A0124
:10130000E0910D03F0E0E050FF4F80818C2B0E94B4
:10131000340961E08AE00E948508C058C0930A0140
:1013200010920C0110920B0160E088E00E94850889
:10133000E0910801F0910901E75EFE4F80818BB9D1
:1013400061E088E00E948508809108019091090180
:10135000019664EF71E00E94FA0B9093090180936B
:101360000801CF9108951F920F920FB60F9211248A
:101370002F933F938F939F93AF93BF9380911501CA
:1013800090911601A0911701B091180130911101AF
:1013900023E0230F2D3758F50196A11DB11D209391
:1013A00011018093150190931601A0931701B0933A
:1013B000180180910D0190910E01A0910F01B09143
:1013C00010010196A11DB11D80930D0190930E0196
:1013D000A0930F01B0931001BF91AF919F918F9196
:1013E0003F912F910F900FBE0F901F90189526E8F8
:1013F000230F0296A11DB11DD2CF1F920F920FB6DF
:101400000F9211242F933F934F935F936F937F938A
:101410008F939F93AF93BF93EF93FF93E09113014B
:10142000F09114010995FF91EF91BF91AF919F91B8
:101430008F917F916F915F914F913F912F910F907D
:101440000FBE0F901F901895789484B5826084BD6C
:1014500084B5816084BD85B5826085BD85B58160B8
:1014600085BD80916E00816080936E001092810036
:1014700080918100826080938100809181008160F1
:1014800080938100809180008160809380008091B2
:10149000B10084608093B1008091B000816080933E
:1014A000B00080917A00846080937A0080917A0005
:1014B000826080937A0080917A00816080937A00C4
:1014C00080917A00806880937A001092C10062E077
:1014D00082E10E94B30862E083E10E94B3088BE3DB
:1014E00099E090932A038093290384E599E09093EF
:1014F0001C0380931B0380E1809381001092800085
:1015000080E89EE3909387008093860081E180933A
:1015100081008DE699E0909314018093130181E09E
:1015200080936F0061E088E00E94B30861E088E08A
:101530000E9485088FEF8AB98BB961E08AE00E942A
:10154000B308CFB7F89480911201811127C0E8EB5E
:10155000F0E08491E4EAF0E09491E82FF0E0EE0FFF
:10156000FF1FE057FF4FA591B491EC91E92321F4BF
:1015700061E08AE00E94850861E08AE00E94B30889
:101580008CB580618CBD8CB580648CBD61E08DE0D4
:101590000E94B30861E08BE00E94B30880911201C1
:1015A0008F5F80931201CFBF8CB58C7F8CBD8DB5C2
:1015B00081608DBD8CB5837F8CBDE0910D03F0E023
:1015C000E050FF4F80810E943409A9E1B1E0EEE6CE
:1015D000FEE084918D93319683E0AD30B807C9F772
:1015E000C0E0D0E02FB7F8948091150190911601DA
:1015F000A0911701B09118012FBF40912303509182
:1016000024036091250370912603841B950BA60B80
:10161000B70B40911F0350912003609121037091FB
:101620002203481759076A077B0720F48DE193E0EE
:101630000E94E4082FB7F89480911501909116014B
:10164000A0911701B09118012FBF4091150350913F
:1016500016036091170370911803841B950BA60B5A
:10166000B70B4091110350911203609113037091D5
:101670001403481759076A077B0720F48FE093E0AB
:101680000E94E40880910E038823F1F0E0910D039D
:10169000E830C0F4F0E0E15BF44F0C940E0C570B13
:1016A0006A0B760B820B8E0B9A0BA60BB20BA9E181
:1016B000B1E0EEE6FEE084918D93319683E0AD30AB
:1016C000B807C9F710920E03209709F48BCF0E9438
:1016D000000088CFEAE7FCE0A9E1B1E084918D93B6
:1016E000319683E0AD30B807C9F7ECCFE6E8FAE011
:1016F000A9E1B1E084918D93319683E0AD30B807D4
:10170000C9F7E0CFE2E9F8E0A9E1B1E084918D9377
:10171000319683E0AD30B807C9F7D4CFEEE9F6E0F3
:10172000A9E1B1E084918D93319683E0AD30B807A3
:10173000C9F7C8CFEAEAF4E0A9E1B1E084918D935A
:10174000319683E0AD30B807C9F7BCCFE6EBF2E0E5
:10175000A9E1B1E084918D93319683E0AD30B80773
:10176000C9F7B0CFE2ECF0E0A9E1B1E084918D934C
:10177000319683E0AD30B807C9F7A4CFCF92DF929E
:10178000EF92FF92CF93DF9362E082E10E94B30871
:10179000EDE1F3E082E190E09183808388E2C82E5E
:1017A000D12CE12CF12CC282D382E482F582168204
:1017B000178210861186C1E0D0E0D387C28762E02D
:1017C00083E10E94B308EFE0F3E083E190E09183CE
:1017D0008083C282D382E482F582168217821086C9
:1017E0001186D387C287DF91CF91FF90EF90DF9072
:1017F000CF90089597FB072E16F4009407D077FD3D
:1018000009D00E94140C07FC05D03EF490958195F8
:101810009F4F0895709561957F4F0895EE0FFF1FBC
:101820000590F491E02D0994AA1BBB1B51E107C060
:10183000AA1FBB1FA617B70710F0A61BB70B881F60
:10184000991F5A95A9F780959095BC01CD010895EF
:04185000F894FFCF3A
:0818540079243019120278001A
:00000001FF
